{
  "contractName": "ReputationProxy",
  "abi": [
    {
      "constant": false,
      "inputs": [
        {
          "name": "repAddr",
          "type": "address"
        },
        {
          "name": "auth",
          "type": "address"
        },
        {
          "name": "duration",
          "type": "uint256"
        }
      ],
      "name": "testGrantAddressAuth",
      "outputs": [
        {
          "name": "",
          "type": "address"
        }
      ],
      "payable": false,
      "stateMutability": "nonpayable",
      "type": "function"
    }
  ],
  "bytecode": "0x608060405234801561001057600080fd5b5061020d806100206000396000f300608060405260043610610041576000357c0100000000000000000000000000000000000000000000000000000000900463ffffffff1680636b82d10e14610046575b600080fd5b34801561005257600080fd5b506100b1600480360381019080803573ffffffffffffffffffffffffffffffffffffffff169060200190929190803573ffffffffffffffffffffffffffffffffffffffff169060200190929190803590602001909291905050506100f3565b604051808273ffffffffffffffffffffffffffffffffffffffff1673ffffffffffffffffffffffffffffffffffffffff16815260200191505060405180910390f35b6000808490508073ffffffffffffffffffffffffffffffffffffffff1663966d905785856040518363ffffffff167c0100000000000000000000000000000000000000000000000000000000028152600401808373ffffffffffffffffffffffffffffffffffffffff1673ffffffffffffffffffffffffffffffffffffffff16815260200182815260200192505050602060405180830381600087803b15801561019c57600080fd5b505af11580156101b0573d6000803e3d6000fd5b505050506040513d60208110156101c657600080fd5b810190808051906020019092919050505091505093925050505600a165627a7a723058205d8d765ec2d453846853be47ece14cbed58c70f22e1b38808b1b18071c6e7fd80029",
  "source": "pragma solidity ^0.4.24;\n\n\nimport \"./Reputation.sol\";\n\ncontract ReputationProxy {\n\n    function testGrantAddressAuth(address repAddr, address auth, uint duration) public returns (address) {\n        Reputation rep = Reputation(repAddr);\n        return rep.grantAddressAuth(auth, duration);\n    }\n}\n",
  "sourcePath": "/Users/andrey/code/token-1329-hackathon/contracts/reputation/ReputationProxy.sol",
  "compiler": {
    "name": "solc",
    "version": "0.4.24+commit.e67f0147.Emscripten.clang"
  },
  "schemaVersion": "2.0.1",
  "updatedAt": "2018-09-08T17:36:34.807Z"
}