{
  "contractName": "ReputationProxy",
  "abi": [
    {
      "constant": false,
      "inputs": [
        {
          "name": "repAddr",
          "type": "address"
        },
        {
          "name": "auth",
          "type": "address"
        },
        {
          "name": "duration",
          "type": "uint256"
        }
      ],
      "name": "testGrantAddressAuth",
      "outputs": [
        {
          "name": "",
          "type": "address"
        }
      ],
      "payable": false,
      "stateMutability": "nonpayable",
      "type": "function"
    },
    {
      "constant": false,
      "inputs": [
        {
          "name": "repAddr",
          "type": "address"
        }
      ],
      "name": "testRevokeAddressAuth",
      "outputs": [],
      "payable": false,
      "stateMutability": "nonpayable",
      "type": "function"
    }
  ],
  "bytecode": "0x608060405234801561001057600080fd5b506102e0806100206000396000f30060806040526004361061004c576000357c0100000000000000000000000000000000000000000000000000000000900463ffffffff1680636b82d10e146100515780639a69da3b146100fe575b600080fd5b34801561005d57600080fd5b506100bc600480360381019080803573ffffffffffffffffffffffffffffffffffffffff169060200190929190803573ffffffffffffffffffffffffffffffffffffffff16906020019092919080359060200190929190505050610141565b604051808273ffffffffffffffffffffffffffffffffffffffff1673ffffffffffffffffffffffffffffffffffffffff16815260200191505060405180910390f35b34801561010a57600080fd5b5061013f600480360381019080803573ffffffffffffffffffffffffffffffffffffffff16906020019092919050505061022f565b005b6000808490508073ffffffffffffffffffffffffffffffffffffffff1663966d905785856040518363ffffffff167c0100000000000000000000000000000000000000000000000000000000028152600401808373ffffffffffffffffffffffffffffffffffffffff1673ffffffffffffffffffffffffffffffffffffffff16815260200182815260200192505050602060405180830381600087803b1580156101ea57600080fd5b505af11580156101fe573d6000803e3d6000fd5b505050506040513d602081101561021457600080fd5b81019080805190602001909291905050509150509392505050565b60008190508073ffffffffffffffffffffffffffffffffffffffff16638ac3cdcf6040518163ffffffff167c0100000000000000000000000000000000000000000000000000000000028152600401600060405180830381600087803b15801561029857600080fd5b505af11580156102ac573d6000803e3d6000fd5b5050505050505600a165627a7a7230582069e31c81f2a9174d92f8cc9992a8282f3900f3d83850a40921aa27f3fc637b220029",
  "source": "pragma solidity ^0.4.24;\n\n\nimport \"./Reputation.sol\";\n\ncontract ReputationProxy {\n\n    function testGrantAddressAuth(address repAddr, address auth, uint duration) public returns (address) {\n        Reputation rep = Reputation(repAddr);\n        return rep.grantAddressAuth(auth, duration);\n    }\n\n    function testRevokeAddressAuth(address repAddr) public {\n        Reputation rep = Reputation(repAddr);\n        return rep.revokeAddressAuth();\n    }\n}\n",
  "sourcePath": "/home/kostysh/dev/1329token/contracts/reputation/ReputationProxy.sol",
  "compiler": {
    "name": "solc",
    "version": "0.4.24+commit.e67f0147.Emscripten.clang"
  },
  "schemaVersion": "2.0.1",
  "updatedAt": "2018-09-08T23:24:58.156Z"
}