{
  "contractName": "Reputation",
  "abi": [
    {
      "constant": true,
      "inputs": [],
      "name": "_symbol",
      "outputs": [
        {
          "name": "",
          "type": "string"
        }
      ],
      "payable": false,
      "stateMutability": "view",
      "type": "function"
    },
    {
      "constant": true,
      "inputs": [],
      "name": "_name",
      "outputs": [
        {
          "name": "",
          "type": "string"
        }
      ],
      "payable": false,
      "stateMutability": "view",
      "type": "function"
    },
    {
      "constant": true,
      "inputs": [],
      "name": "_granularity",
      "outputs": [
        {
          "name": "",
          "type": "uint256"
        }
      ],
      "payable": false,
      "stateMutability": "view",
      "type": "function"
    },
    {
      "inputs": [],
      "payable": false,
      "stateMutability": "nonpayable",
      "type": "constructor"
    },
    {
      "anonymous": false,
      "inputs": [
        {
          "indexed": false,
          "name": "owner",
          "type": "address"
        },
        {
          "indexed": false,
          "name": "amountProduced",
          "type": "uint256"
        }
      ],
      "name": "Issued",
      "type": "event"
    },
    {
      "anonymous": false,
      "inputs": [
        {
          "indexed": false,
          "name": "owner",
          "type": "address"
        },
        {
          "indexed": false,
          "name": "amountBurned",
          "type": "uint256"
        }
      ],
      "name": "Burned",
      "type": "event"
    },
    {
      "anonymous": false,
      "inputs": [
        {
          "indexed": false,
          "name": "owner",
          "type": "address"
        },
        {
          "indexed": false,
          "name": "auth",
          "type": "address"
        },
        {
          "indexed": false,
          "name": "duration",
          "type": "uint256"
        }
      ],
      "name": "AuthGranted",
      "type": "event"
    },
    {
      "anonymous": false,
      "inputs": [
        {
          "indexed": false,
          "name": "owner",
          "type": "address"
        },
        {
          "indexed": false,
          "name": "auth",
          "type": "address"
        }
      ],
      "name": "AuthRevoked",
      "type": "event"
    },
    {
      "anonymous": false,
      "inputs": [
        {
          "indexed": false,
          "name": "owner",
          "type": "address"
        },
        {
          "indexed": false,
          "name": "auth",
          "type": "address"
        }
      ],
      "name": "AuthExpired",
      "type": "event"
    },
    {
      "constant": true,
      "inputs": [],
      "name": "name",
      "outputs": [
        {
          "name": "",
          "type": "string"
        }
      ],
      "payable": false,
      "stateMutability": "view",
      "type": "function"
    },
    {
      "constant": true,
      "inputs": [],
      "name": "symbol",
      "outputs": [
        {
          "name": "",
          "type": "string"
        }
      ],
      "payable": false,
      "stateMutability": "view",
      "type": "function"
    },
    {
      "constant": true,
      "inputs": [],
      "name": "granularity",
      "outputs": [
        {
          "name": "",
          "type": "uint256"
        }
      ],
      "payable": false,
      "stateMutability": "view",
      "type": "function"
    },
    {
      "constant": true,
      "inputs": [],
      "name": "hasLimit",
      "outputs": [
        {
          "name": "",
          "type": "bool"
        }
      ],
      "payable": false,
      "stateMutability": "view",
      "type": "function"
    },
    {
      "constant": true,
      "inputs": [],
      "name": "totalLimit",
      "outputs": [
        {
          "name": "",
          "type": "uint256"
        }
      ],
      "payable": false,
      "stateMutability": "view",
      "type": "function"
    },
    {
      "constant": true,
      "inputs": [],
      "name": "currentSupply",
      "outputs": [
        {
          "name": "",
          "type": "uint256"
        }
      ],
      "payable": false,
      "stateMutability": "view",
      "type": "function"
    },
    {
      "constant": true,
      "inputs": [
        {
          "name": "owner",
          "type": "address"
        }
      ],
      "name": "balanceOf",
      "outputs": [
        {
          "name": "",
          "type": "uint256"
        }
      ],
      "payable": false,
      "stateMutability": "view",
      "type": "function"
    },
    {
      "constant": true,
      "inputs": [
        {
          "name": "owner",
          "type": "address"
        }
      ],
      "name": "authAddress",
      "outputs": [
        {
          "name": "",
          "type": "address"
        },
        {
          "name": "",
          "type": "uint256"
        }
      ],
      "payable": false,
      "stateMutability": "view",
      "type": "function"
    },
    {
      "constant": false,
      "inputs": [
        {
          "name": "auth",
          "type": "address"
        },
        {
          "name": "duration",
          "type": "uint256"
        }
      ],
      "name": "grantAddressAuth",
      "outputs": [
        {
          "name": "",
          "type": "address"
        }
      ],
      "payable": false,
      "stateMutability": "nonpayable",
      "type": "function"
    },
    {
      "constant": false,
      "inputs": [
        {
          "name": "forDuration",
          "type": "uint256"
        }
      ],
      "name": "extendAuthDuration",
      "outputs": [],
      "payable": false,
      "stateMutability": "nonpayable",
      "type": "function"
    },
    {
      "constant": false,
      "inputs": [],
      "name": "revokeAddressAuth",
      "outputs": [],
      "payable": false,
      "stateMutability": "nonpayable",
      "type": "function"
    }
  ],
  "bytecode": "0x608060405234801561001057600080fd5b5060006006819055507fffffffffffffffffffffffffffffffffffffffffffffffffffffffffffffffff6005819055506111118061004f6000396000f3006080604052600436106100d0576000357c0100000000000000000000000000000000000000000000000000000000900463ffffffff16806306fdde03146100d557806344489ad114610165578063556f0dc71461019457806370a08231146101bf578063771282f6146102165780638ac3cdcf1461024157806391442efb1461025857806395d89b4114610285578063966d905714610315578063a36298c7146103a2578063b09f1266146103cd578063d28d88521461045d578063eaba86a6146104ed578063fc4b6b9514610518575b600080fd5b3480156100e157600080fd5b506100ea6105a2565b6040518080602001828103825283818151815260200191508051906020019080838360005b8381101561012a57808201518184015260208101905061010f565b50505050905090810190601f1680156101575780820380516001836020036101000a031916815260200191505b509250505060405180910390f35b34801561017157600080fd5b5061017a6105df565b604051808215151515815260200191505060405180910390f35b3480156101a057600080fd5b506101a96105e7565b6040518082815260200191505060405180910390f35b3480156101cb57600080fd5b50610200600480360381019080803573ffffffffffffffffffffffffffffffffffffffff1690602001909291905050506105f0565b6040518082815260200191505060405180910390f35b34801561022257600080fd5b5061022b610638565b6040518082815260200191505060405180910390f35b34801561024d57600080fd5b50610256610642565b005b34801561026457600080fd5b506102836004803603810190808035906020019092919050505061091c565b005b34801561029157600080fd5b5061029a610c15565b6040518080602001828103825283818151815260200191508051906020019080838360005b838110156102da5780820151818401526020810190506102bf565b50505050905090810190601f1680156103075780820380516001836020036101000a031916815260200191505b509250505060405180910390f35b34801561032157600080fd5b50610360600480360381019080803573ffffffffffffffffffffffffffffffffffffffff16906020019092919080359060200190929190505050610c52565b604051808273ffffffffffffffffffffffffffffffffffffffff1673ffffffffffffffffffffffffffffffffffffffff16815260200191505060405180910390f35b3480156103ae57600080fd5b506103b7610fb2565b6040518082815260200191505060405180910390f35b3480156103d957600080fd5b506103e2610fbc565b6040518080602001828103825283818151815260200191508051906020019080838360005b83811015610422578082015181840152602081019050610407565b50505050905090810190601f16801561044f5780820380516001836020036101000a031916815260200191505b509250505060405180910390f35b34801561046957600080fd5b50610472610ff5565b6040518080602001828103825283818151815260200191508051906020019080838360005b838110156104b2578082015181840152602081019050610497565b50505050905090810190601f1680156104df5780820380516001836020036101000a031916815260200191505b509250505060405180910390f35b3480156104f957600080fd5b5061050261102e565b6040518082815260200191505060405180910390f35b34801561052457600080fd5b50610559600480360381019080803573ffffffffffffffffffffffffffffffffffffffff169060200190929190505050611033565b604051808373ffffffffffffffffffffffffffffffffffffffff1673ffffffffffffffffffffffffffffffffffffffff1681526020018281526020019250505060405180910390f35b60606040805190810160405280600781526020017f4552433133323900000000000000000000000000000000000000000000000000815250905090565b600080905090565b60006001905090565b60008060008373ffffffffffffffffffffffffffffffffffffffff1673ffffffffffffffffffffffffffffffffffffffff168152602001908152602001600020549050919050565b6000600654905090565b60003373ffffffffffffffffffffffffffffffffffffffff163273ffffffffffffffffffffffffffffffffffffffff1614151561067e57600080fd5b600073ffffffffffffffffffffffffffffffffffffffff16600260003273ffffffffffffffffffffffffffffffffffffffff1673ffffffffffffffffffffffffffffffffffffffff16815260200190815260200160002060009054906101000a900473ffffffffffffffffffffffffffffffffffffffff1673ffffffffffffffffffffffffffffffffffffffff161415151561071957600080fd5b600260003273ffffffffffffffffffffffffffffffffffffffff1673ffffffffffffffffffffffffffffffffffffffff16815260200190815260200160002060009054906101000a900473ffffffffffffffffffffffffffffffffffffffff169050600260003273ffffffffffffffffffffffffffffffffffffffff1673ffffffffffffffffffffffffffffffffffffffff16815260200190815260200160002060006101000a81549073ffffffffffffffffffffffffffffffffffffffff0219169055600360008273ffffffffffffffffffffffffffffffffffffffff1673ffffffffffffffffffffffffffffffffffffffff16815260200190815260200160002060006101000a81549073ffffffffffffffffffffffffffffffffffffffff0219169055600160008273ffffffffffffffffffffffffffffffffffffffff1673ffffffffffffffffffffffffffffffffffffffff168152602001908152602001600020600090557fab1a47bb62923f2f4bc3420e54d152ca8dcb1f115f9779fb64299b62665b529b3282604051808373ffffffffffffffffffffffffffffffffffffffff1673ffffffffffffffffffffffffffffffffffffffff1681526020018273ffffffffffffffffffffffffffffffffffffffff1673ffffffffffffffffffffffffffffffffffffffff1681526020019250505060405180910390a150565b6000803373ffffffffffffffffffffffffffffffffffffffff163273ffffffffffffffffffffffffffffffffffffffff1614151561095957600080fd5b600073ffffffffffffffffffffffffffffffffffffffff16600260003273ffffffffffffffffffffffffffffffffffffffff1673ffffffffffffffffffffffffffffffffffffffff16815260200190815260200160002060009054906101000a900473ffffffffffffffffffffffffffffffffffffffff1673ffffffffffffffffffffffffffffffffffffffff16141515156109f457600080fd5b600260003273ffffffffffffffffffffffffffffffffffffffff1673ffffffffffffffffffffffffffffffffffffffff16815260200190815260200160002060009054906101000a900473ffffffffffffffffffffffffffffffffffffffff169150600160008373ffffffffffffffffffffffffffffffffffffffff1673ffffffffffffffffffffffffffffffffffffffff16815260200190815260200160002054905043811015610aeb57824301600160008473ffffffffffffffffffffffffffffffffffffffff1673ffffffffffffffffffffffffffffffffffffffff16815260200190815260200160002081905550610b71565b82600160008473ffffffffffffffffffffffffffffffffffffffff1673ffffffffffffffffffffffffffffffffffffffff1681526020019081526020016000205401600160008473ffffffffffffffffffffffffffffffffffffffff1673ffffffffffffffffffffffffffffffffffffffff168152602001908152602001600020819055505b7f04a303291cd9329da4d92d22bc6a8a275f4ed9ae040ef63faa7e3b0425505219328385604051808473ffffffffffffffffffffffffffffffffffffffff1673ffffffffffffffffffffffffffffffffffffffff1681526020018373ffffffffffffffffffffffffffffffffffffffff1673ffffffffffffffffffffffffffffffffffffffff168152602001828152602001935050505060405180910390a1505050565b60606040805190810160405280600381526020017f5245500000000000000000000000000000000000000000000000000000000000815250905090565b6000803373ffffffffffffffffffffffffffffffffffffffff163273ffffffffffffffffffffffffffffffffffffffff16141515610c8f57600080fd5b600073ffffffffffffffffffffffffffffffffffffffff168473ffffffffffffffffffffffffffffffffffffffff1614151515610ccb57600080fd5b600073ffffffffffffffffffffffffffffffffffffffff16600360008673ffffffffffffffffffffffffffffffffffffffff1673ffffffffffffffffffffffffffffffffffffffff16815260200190815260200160002060009054906101000a900473ffffffffffffffffffffffffffffffffffffffff1673ffffffffffffffffffffffffffffffffffffffff16141515610d6557600080fd5b600260003273ffffffffffffffffffffffffffffffffffffffff1673ffffffffffffffffffffffffffffffffffffffff16815260200190815260200160002060009054906101000a900473ffffffffffffffffffffffffffffffffffffffff16905083600260003273ffffffffffffffffffffffffffffffffffffffff1673ffffffffffffffffffffffffffffffffffffffff16815260200190815260200160002060006101000a81548173ffffffffffffffffffffffffffffffffffffffff021916908373ffffffffffffffffffffffffffffffffffffffff160217905550438301600160008673ffffffffffffffffffffffffffffffffffffffff1673ffffffffffffffffffffffffffffffffffffffff1681526020019081526020016000208190555032600360008673ffffffffffffffffffffffffffffffffffffffff1673ffffffffffffffffffffffffffffffffffffffff16815260200190815260200160002060006101000a81548173ffffffffffffffffffffffffffffffffffffffff021916908373ffffffffffffffffffffffffffffffffffffffff1602179055507f04a303291cd9329da4d92d22bc6a8a275f4ed9ae040ef63faa7e3b0425505219338585604051808473ffffffffffffffffffffffffffffffffffffffff1673ffffffffffffffffffffffffffffffffffffffff1681526020018373ffffffffffffffffffffffffffffffffffffffff1673ffffffffffffffffffffffffffffffffffffffff168152602001828152602001935050505060405180910390a18091505092915050565b6000600554905090565b6040805190810160405280600381526020017f524550000000000000000000000000000000000000000000000000000000000081525081565b6040805190810160405280600781526020017f455243313332390000000000000000000000000000000000000000000000000081525081565b600181565b6000806000600260008573ffffffffffffffffffffffffffffffffffffffff1673ffffffffffffffffffffffffffffffffffffffff16815260200190815260200160002060009054906101000a900473ffffffffffffffffffffffffffffffffffffffff16905080600160008373ffffffffffffffffffffffffffffffffffffffff1673ffffffffffffffffffffffffffffffffffffffff1681526020019081526020016000205492509250509150915600a165627a7a7230582037d0b0b9e7cfc5c6235867076085136f9f3e470bf7ba93d311d5b837666c90300029",
  "source": "pragma solidity ^0.4.24;\n\nimport \"./IReputation.sol\";\n\n\ncontract Reputation is IReputation {\n\n    string public constant _name = \"ERC1329\";\n    string public constant _symbol = \"REP\";\n    uint256 public constant _granularity = 1;\n\n    // key : owner , value : balance\n    mapping(address => uint256) internal _balances;\n    // key : auth  , value : duration (blocks)\n    mapping(address => uint256) internal _authorized_duration;\n    // key : owner , value : auth\n    mapping(address => address) internal _authorized_addresses;\n    // key : auth  , value : owner\n    mapping(address => address) internal _owner_addresses;\n    // key : owner , value : banned \n    mapping(address => bool) internal _banneds;\n\n    uint256 internal _totalLimit;\n    uint256 internal _currentSupply;\n\n\n    // ------------------------------------------------------------------------\n    // Constructor\n    // ------------------------------------------------------------------------\n    constructor() public {\n        // no tokens minted on deploy\n        _currentSupply = 0;\n        _totalLimit = 2**256 - 1;\n    }\n\n\n    // ------------------------------------------------------------------------\n    // Functions\n    // ------------------------------------------------------------------------\n    function name() public view returns (string) {\n        return _name;\n    }\n    function symbol() public view returns (string) {\n        return _symbol;\n    }\n    function granularity() public view returns (uint256) {\n        return _granularity;\n    }\n\n    /// Reputation may be limited or unlimited by the supply. These functions\n    /// provide information whether the supply is limited and, if not, the\n    /// `totalLimit()` and `currentSupply()` will be returning the maximum amount\n    /// of the tokens that can be produced and current token issuance\n    function hasLimit() public view returns (bool) {\n        return false;\n    }\n    function totalLimit() public view returns (uint256) {\n        return _totalLimit; /// max value for uint256\n    }\n    function currentSupply() public view returns (uint256) {\n        return _currentSupply; /// max value for uint256\n    }\n    function balanceOf(address owner) public view returns (uint256) {\n        return _balances[owner]; /// return requested owner balance\n    }\n\n    /// Authorizes address to interact with the contract on behalf\n    /// of the balance owner for a some duration (amount of blocks)\n    function authAddress(address owner) public view returns (address, uint256) {\n        address auth = _authorized_addresses[owner];\n        return (auth, _authorized_duration[auth]);\n    }\n\n    /// Authorizes address to interact with the contract on behalf\n    /// of the balance owner for a some duration (amount of blocks)\n    function grantAddressAuth(address auth, uint duration) public returns (address){\n        require(tx.origin == msg.sender);\n        require(auth != address(0));\n        require(_owner_addresses[auth] == address(0));\n\n        address prev = _authorized_addresses[tx.origin];\n\n        _authorized_addresses[tx.origin] = auth;\n        _authorized_duration[auth] = duration + block.number;\n        _owner_addresses[auth] = tx.origin;\n\n        emit AuthGranted(msg.sender, auth, duration);\n        return prev;\n    }\n\n    /// Extends authorized duration for the registered authorized address\n    function extendAuthDuration(uint forDuration) public {\n        require(tx.origin == msg.sender);\n        require(_authorized_addresses[tx.origin] != address(0));\n\n        address auth = _authorized_addresses[tx.origin];\n\n        uint256 old_duration = _authorized_duration[auth];\n        if(old_duration<block.number){\n            _authorized_duration[auth] = block.number + forDuration;\n        } else {\n            _authorized_duration[auth] = _authorized_duration[auth] + forDuration;\n        }\n\n        emit AuthGranted(tx.origin, auth, forDuration);\n    }\n\n    function revokeAddressAuth() public {\n        require(tx.origin == msg.sender);\n        require(_authorized_addresses[tx.origin] != address(0));\n\n        address auth = _authorized_addresses[tx.origin];\n        delete _authorized_addresses[tx.origin];\n        delete _owner_addresses[auth];\n        delete _authorized_duration[auth];\n\n        emit AuthRevoked(tx.origin, auth);\n    }\n\n}\n",
  "sourcePath": "/Users/andrey/code/token-1329-hackathon/contracts/reputation/Reputation.sol",
  "compiler": {
    "name": "solc",
    "version": "0.4.24+commit.e67f0147.Emscripten.clang"
  },
  "schemaVersion": "2.0.1",
  "updatedAt": "2018-09-08T16:50:49.499Z"
}